{
  "transactions": [
    {
      "hash": "0xbbe31b3e5a310fc1cc74d1449851e83e4e28f386ae9f231d52fed044bd387c4f",
      "transactionType": "CALL",
      "contractName": "LinkToken",
      "contractAddress": "0x779877A7B0D9E8603169DdbD7836e478b4624789",
      "function": "transferAndCall(address,uint256,bytes):(bool)",
      "arguments": [
        "0x8103B0A8A00be2DDC778e6e7eaa21791Cd364625",
        "3000000000000000000",
        "0x0000000000000000000000000000000000000000000000000000000000000be7"
      ],
      "transaction": {
        "type": "0x02",
        "from": "0xb77070bd599655570a2ae22d33c0df76107a21ae",
        "to": "0x779877a7b0d9e8603169ddbd7836e478b4624789",
        "gas": "0x13fbe",
        "value": "0x0",
        "data": "0x4000aea00000000000000000000000008103b0a8a00be2ddc778e6e7eaa21791cd36462500000000000000000000000000000000000000000000000029a2241af62c0000000000000000000000000000000000000000000000000000000000000000006000000000000000000000000000000000000000000000000000000000000000200000000000000000000000000000000000000000000000000000000000000be7",
        "nonce": "0x6",
        "accessList": []
      },
      "additionalContracts": [],
      "isFixedGasLimit": false
    }
  ],
  "receipts": [],
  "libraries": [],
  "pending": [
    "0xbbe31b3e5a310fc1cc74d1449851e83e4e28f386ae9f231d52fed044bd387c4f"
  ],
  "returns": {},
  "timestamp": 1687437308,
  "chain": 11155111,
  "multi": false,
  "commit": "cdd65c9"
}