{
  "transactions": [
    {
      "hash": "0xbbe31b3e5a310fc1cc74d1449851e83e4e28f386ae9f231d52fed044bd387c4f",
      "transactionType": "CALL",
      "contractName": "LinkToken",
      "contractAddress": "0x779877A7B0D9E8603169DdbD7836e478b4624789",
      "function": "transferAndCall(address,uint256,bytes):(bool)",
      "arguments": [
        "0x8103B0A8A00be2DDC778e6e7eaa21791Cd364625",
        "3000000000000000000",
        "0x0000000000000000000000000000000000000000000000000000000000000be7"
      ],
      "transaction": {
        "type": "0x02",
        "from": "0xb77070bd599655570a2ae22d33c0df76107a21ae",
        "to": "0x779877a7b0d9e8603169ddbd7836e478b4624789",
        "gas": "0x13fbe",
        "value": "0x0",
        "data": "0x4000aea00000000000000000000000008103b0a8a00be2ddc778e6e7eaa21791cd36462500000000000000000000000000000000000000000000000029a2241af62c0000000000000000000000000000000000000000000000000000000000000000006000000000000000000000000000000000000000000000000000000000000000200000000000000000000000000000000000000000000000000000000000000be7",
        "nonce": "0x6",
        "accessList": []
      },
      "additionalContracts": [],
      "isFixedGasLimit": false
    }
  ],
  "receipts": [
    {
      "transactionHash": "0xbbe31b3e5a310fc1cc74d1449851e83e4e28f386ae9f231d52fed044bd387c4f",
      "transactionIndex": "0xd",
      "blockHash": "0x80a475e52791de7fd2739c693ace28167d29eec90ef020d6f64f053452f8379e",
      "blockNumber": "0x3921df",
      "from": "0xb77070bD599655570a2aE22d33c0Df76107A21AE",
      "to": "0x779877A7B0D9E8603169DdbD7836e478b4624789",
      "cumulativeGasUsed": "0xe2b731",
      "gasUsed": "0xe77e",
      "contractAddress": null,
      "logs": [
        {
          "address": "0x779877A7B0D9E8603169DdbD7836e478b4624789",
          "topics": [
            "0xddf252ad1be2c89b69c2b068fc378daa952ba7f163c4a11628f55a4df523b3ef",
            "0x000000000000000000000000b77070bd599655570a2ae22d33c0df76107a21ae",
            "0x0000000000000000000000008103b0a8a00be2ddc778e6e7eaa21791cd364625"
          ],
          "data": "0x00000000000000000000000000000000000000000000000029a2241af62c0000",
          "blockHash": "0x80a475e52791de7fd2739c693ace28167d29eec90ef020d6f64f053452f8379e",
          "blockNumber": "0x3921df",
          "transactionHash": "0xbbe31b3e5a310fc1cc74d1449851e83e4e28f386ae9f231d52fed044bd387c4f",
          "transactionIndex": "0xd",
          "logIndex": "0x27",
          "removed": false
        },
        {
          "address": "0x779877A7B0D9E8603169DdbD7836e478b4624789",
          "topics": [
            "0xe19260aff97b920c7df27010903aeb9c8d2be5d310a2c67824cf3f15396e4c16",
            "0x000000000000000000000000b77070bd599655570a2ae22d33c0df76107a21ae",
            "0x0000000000000000000000008103b0a8a00be2ddc778e6e7eaa21791cd364625"
          ],
          "data": "0x00000000000000000000000000000000000000000000000029a2241af62c0000000000000000000000000000000000000000000000000000000000000000004000000000000000000000000000000000000000000000000000000000000000200000000000000000000000000000000000000000000000000000000000000be7",
          "blockHash": "0x80a475e52791de7fd2739c693ace28167d29eec90ef020d6f64f053452f8379e",
          "blockNumber": "0x3921df",
          "transactionHash": "0xbbe31b3e5a310fc1cc74d1449851e83e4e28f386ae9f231d52fed044bd387c4f",
          "transactionIndex": "0xd",
          "logIndex": "0x28",
          "removed": false
        },
        {
          "address": "0x8103B0A8A00be2DDC778e6e7eaa21791Cd364625",
          "topics": [
            "0xd39ec07f4e209f627a4c427971473820dc129761ba28de8906bd56f57101d4f8",
            "0x0000000000000000000000000000000000000000000000000000000000000be7"
          ],
          "data": "0x0000000000000000000000000000000000000000000000004563918244f400000000000000000000000000000000000000000000000000006f05b59d3b200000",
          "blockHash": "0x80a475e52791de7fd2739c693ace28167d29eec90ef020d6f64f053452f8379e",
          "blockNumber": "0x3921df",
          "transactionHash": "0xbbe31b3e5a310fc1cc74d1449851e83e4e28f386ae9f231d52fed044bd387c4f",
          "transactionIndex": "0xd",
          "logIndex": "0x29",
          "removed": false
        }
      ],
      "status": "0x1",
      "logsBloom": "0x0000001400000000000000000000000000000000000000020000000002000000000000000000800000000000000000000000000000000000000000000000000000000000000000000000000800000000000000000000000000002000000000000000000000000000000000000000000000000000400000000000001800000000000000000c00002000000000000080001000002000000000000000000000000000000000000000000000000000000000000a000000000000000400000000000000000002000000000000000000000000000000000000000100000000000000000002000000000000000000000000000000000000000000000000100000002000",
      "type": "0x2",
      "effectiveGasPrice": "0x18b2c0d9b"
    }
  ],
  "libraries": [],
  "pending": [],
  "returns": {},
  "timestamp": 1687437327,
  "chain": 11155111,
  "multi": false,
  "commit": "cdd65c9"
}